:100000000C9446010C946E010C946E010C94281013
:100010000C9404100C94E00F0C946E010C946E017F
:100020000C946E010C946E010C946E010C946E0194
:100030000C946E010C946E010C946E010C946E0184
:100040000C949E0E0C946E010C94D2130C94AC1371
:100050000C946E010C946E010C946E010C946E0164
:100060000C946E010C946E0100C20100010011009D
:1000700011000C0000E100000A002500250021000D
:10008000009600001900390039003600127A00008D
:100090001F004600460044008070000022004D0012
:1000A0004D004A00004B00003600750075007200DC
:1000B000403800004A009C009C0099008025000008
:1000C0007200EC00EC00E900C0120000E900DA0167
:1000D000DA01D70160090000D701B603B603B30304
:1000E000B0040000B3036E076E076B072C0100001D
:1000F000DC0EC11DC11DBE1D41542B434F4C503D54
:100100003100415445300041542B434C49503D315E
:100110000041542B434D47463D310041542B494645
:10012000433D312C31002B43475245473A20302C78
:1001300035002B43475245473A20302C310041547B
:100140002B43475245473F0041542B4350494E3DB6
:1001500000415400504F57455220444F574E0043E2
:100160004F4E4E4543540D0A0041542B51494F50B8
:10017000454E3D0041542B5149444E5349503D009A
:1001800041542B5149434C4F534500434C4F534529
:10019000440041542B434D47533D220041542B43CF
:1001A0004D474C3D2252454320554E524541442235
:1001B0002C310041542B434D47443D0041542B51B9
:1001C000495345525645520041542B51494C504FCA
:1001D00052543D22544350222C0041542B51494C3F
:1001E0004F43495000434F4E4E4543540D0A004380
:1001F0004C4F5345440D0A004154440041542B4395
:100200004C43430041544100415448002B434C4966
:10021000503A0042555359004E4F204341525249E3
:100220004552002B434F4C503A0052494E47000074
:10023000000000240027002A00000000080002013E
:1002400000000304070000000000000000000000A0
:1002500000250028002B00000000002300260029B4
:10026000000404040404040404020202020202035F
:100270000303030303010204081020408001020469
:1002800008102001020408102000621711241FBE6C
:10029000CFEFD8E0DEBFCDBF12E0A0E0B1E0EAE5ED
:1002A000F2E302C005900D92AA39B107D9F724E014
:1002B000AAE9B2E001C01D92AA3AB207E1F711E043
:1002C000C6E4D1E004C02197FE010E942019C53484
:1002D000D107C9F70E94AA160C942B190C940000A0
:1002E00081E020915503309156032530310509F006
:1002F00080E00895089580E090E00895909177035C
:1003000080917603891728F4809177039091760382
:1003100005C080917703909176038058891B39F04E
:10032000E0917603F0E0E85BFC4F82A901C080E039
:10033000082E000C990B089508950895CF92DF922E
:10034000EF92FF92DB011296CD90DD90ED90FC9044
:100350001597FC01C186D286E386F48610924B0382
:1003600010924A030190F081E02D0484F585E02D80
:1003700060E070E0FF90EF90DF90CF90099480E014
:1003800090E0089580E090E0089580E008958091E5
:10039000420390914303DC01ED91FC910084F185CF
:1003A000E02D09948091420390914303DC01ED918B
:1003B000FC910684F785E02D099480914203909189
:1003C0004303DC01ED91FC910280F381E02D09955E
:1003D00081E090E008958091420390914303DC0115
:1003E000ED91FC910088F189E02D099480E090E086
:1003F000089580E090E00895089580E090E00895E9
:1004000080E090E0089580E090E00895089580E015
:1004100090E00895AF92BF92DF92EF92FF920F9318
:100420001F93CF93DF93DC01FB018081882399F137
:1004300030E0E0E0F0E009C0311132C051E09F5FF0
:100440009F77511132C04F5F4F77421789F1942F38
:10045000ED01C90FD11DAC80B12CEB01CE0FDF1F18
:10046000C8810C2E000CDD0BAC16BD0629F731112E
:1004700001C0D92E3196EB01CE0FDF1F888181118B
:100480000CC00115110511F0F801D082E114F1043E
:1004900011F0F701908381E00CC051E031E0CFCF43
:1004A00050E030E0E0E0F0E0CACF9213D1CFCBCF04
:1004B00080E0DF91CF911F910F91FF90EF90DF903F
:1004C000BF90AF90089508950F931F93CF93DF933C
:1004D0008C01C5E0D0E0809177038093760383E6BA
:1004E00093E00E94FF0B6AE070E080E090E00E94E1
:1004F0007014219781F7C801029690935E03809350
:100500005D0310924E0381E080934F0387E090E0FB
:10051000909351038093500310925303109254030D
:10052000C801DF91CF911F910F910C948C10CF9344
:1005300080917603909177038150891B8F7731F1F9
:100540009091760380917703981771F0E09176038C
:10055000F0E0E85BFC4F82A9909176039F5F9F7764
:1005600090937603C82F01C0C0E0809176039091EC
:1005700077038150891B8F77843621F483E693E0DB
:100580000E94FF0B8C2FCC0F990B02C080E090E0F3
:10059000CF9108958091770390917603891B8F778F
:1005A00041F0809177038093760383E693E00C9487
:1005B000FF0B81E090E00C946112E4E4F3E09C0115
:1005C0002D5F3F4F328F218F128621E0238723E159
:1005D00030E0358724871786108A0C94CA028091F0
:1005E000550390915603059721F084E090E00E9416
:1005F00061128091770390917603891B8F7719F0B0
:1006000081E090E002C084E090E00E94611280915D
:100610004E0390E00895CF93DF931F92CDB7DEB7DE
:1006200080914F03813019F0823051F01DC061E09C
:1006300081E591E00E947F1282E080934F0314C015
:1006400040E050E060E070E0CE0101960E943D1273
:10065000882351F08981882319F081E090E002C05D
:1006600083E090E00E9461120F90DF91CF91089596
:10067000CF93DF93C4E4D3E01A8621E02B879C015B
:100680002E5F3F4F3A8F298F23E030E03D872C8744
:100690001F86188A0E940B038A8590E0DF91CF9114
:1006A0000895CF92DF92FF920F931F93CF93DF9322
:1006B0001F92CDB7DEB78C016B01F601F490FF20DD
:1006C00059F0D801ED91FC910280F381E02D6F2D5E
:1006D000C801498309954981BFEFCB1ADB0AF110A4
:1006E000ECCF442331F06FEE71E0C80102960E9416
:1006F000541381E090E00F90DF91CF911F910F9103
:10070000FF90DF90CF90089580915503909156030C
:10071000059721F486E493E00C9454130895CF9345
:10072000DF93EC012396D0935E03C0935D03109298
:100730004E0381E080934F038FE090E0909351034C
:1007400080935003109253031092540368EE73E0A9
:1007500080E090E00E9470146AEE71E086E493E01D
:100760000E94541368EE73E080E090E00E947014E1
:1007700061E080E891E00E947F1284E090E0909335
:10078000560380935503809177038093760383E625
:1007900093E00E94FF0B64E670E080E090E00E942E
:1007A000701481E090E00E94611290917703809133
:1007B0007603981B9F7739F78091570390915803E0
:1007C0008C179D0789F08091590390915A038C17DB
:1007D0009D0769F080915B0390915C038C179D07E6
:1007E00079F482E090E005C080E090E002C081E012
:1007F00090E0880F991FFC01EC5BFC4F148A138A70
:1008000080914E0390E0DF91CF9108950E9456139E
:1008100080914E0390E008950E94561380914E03FC
:1008200090E008950E94561380914E0390E0089541
:100830008091550390915603059721F486E493E047
:100840000C94D112089561E087E00E94341461E0B5
:1008500087E00E94041464E873E080E090E00E9466
:10086000701460E087E00E94041486E090E09093AA
:1008700056038093550310929B0210929A0281E0D6
:100880000895CF92DF92EF92FF92CF93DF93EC0126
:100890000E94920E6B017C010E94920EAB01BC0182
:1008A0004C195D096E097F09403157426105710598
:1008B00050F0CE010E94EB0121E030E0019779F089
:1008C00020E030E00CC0CE010E94EB01892B89F7BB
:1008D00064E670E080E090E00E947014DDCFC90112
:1008E000DF91CF91FF90EF90DF90CF900895CF935D
:1008F000DF93EC018091420390914303DC01ED9181
:10090000FC910284F385E02D09958C8580FF05C05C
:10091000CE01DF91CF910C944104CE01DF91CF91B4
:100920000C94EB01CF93DF93EC0180914203909103
:100930004303DC01ED91FC910680F781E02D0995E0
:100940008C8580FF05C0CE01DF91CF910C944104CE
:10095000CE01DF91CF910C94EB01CF93DF931F92E7
:10096000CDB7DEB780914F03813019F08230C1F0EE
:100970002BC082E080934F0360E082E991E00E9407
:100980007F1260914A0370914B0386E493E00E94CA
:1009900054136EEE71E086E493E00E94541314C089
:1009A00040E050E061EF71E0CE0101960E943D12FF
:1009B000882351F08981882319F081E090E002C0FA
:1009C00083E090E00E9461120F90DF91CF91089533
:1009D00020915503309156032350310922303105BF
:1009E00018F082E090E0089570934B0360934A03FF
:1009F0009C012E5F3F4F30935E0320935D03109266
:100A00004E0321E020934F0324E030E03093510364
:100A10002093500310925303109254030E94AD048C
:100A200080914E0390E00895AF92BF92CF92DF92F3
:100A3000FF920F931F93CF93DF931F92CDB7DEB733
:100A40008C01F62E5C0183E1A80EB11C6801A9E1BE
:100A5000CA0ED11CF501819191915F01009749F176
:100A6000DC01ED91FC910280F381E02D6F2D498333
:100A700009954981AC14BD0419F0882359F31DC0B0
:100A800081111BC0F801818D928D0097B1F0DC01BE
:100A9000ED91FC910190F081E02D6F2D0F90DF9191
:100AA000CF911F910F91FF90DF90CF90BF90AF90AB
:100AB0000994EC15FD0571F6E5CF0F90DF91CF910C
:100AC0001F910F91FF90DF90CF90BF90AF9008954E
:100AD000FC012685222319F06787408B08950C942A
:100AE0001405FB01DA0184918D9331968111FBCFBE
:100AF0000895CF92DF92EF92FF920F931F93CF93BF
:100B0000DF93CDB7DEB763970FB6F894DEBF0FBEA5
:100B1000CDBF8C0161E087E00E94341461E087E082
:100B20000E9404146CED75E080E090E00E94701467
:100B300060E087E00E94041481E090E09093560307
:100B40008093550310929B0210929A020E94920E7B
:100B50006B017C01AE014F5F5F4F64E571E0C8013E
:100B600002960E9471050E94920EDC01CB018C1945
:100B70009D09AE09BF0988389341A105B10598F4D4
:100B800061E070E080E090E00E94701440E050E08E
:100B9000BE016F5F7F4FCE0143960E943D128823B6
:100BA00011F38B8901C080E063960FB6F894DEBF25
:100BB0000FBECDBFDF91CF911F910F91FF90EF90AE
:100BC000DF90CF900895CF92DF92EF92FF920F9334
:100BD0001F93CF93DF93CDB7DEB769970FB6F89425
:100BE000DEBF0FBECDBF20914F0330E02130310575
:100BF00039F482E080934F0361E081E591E04CC1DC
:100C000022303105A9F540E050E060E070E0CE010F
:100C100049960E943D12882309F440C1898D88239A
:100C200009F49FC0E0914A03F0914B03309709F417
:100C300023C18081882309F41FC160E088E491E02A
:100C40000E947F1283E080934F0360914A0370916A
:100C50004B03809177038093760386E493E00E94B0
:100C600054136FEE71E086E493E00E94541316C1B2
:100C70002330310549F540E050E060E070E0CE01FE
:100C800049960E943D12882309F408C1898D882362
:100C900009F467C084E080934F030E94920E609332
:100CA0005F0370936003809361039093620300E09D
:100CB00010E088EE93E00E94E80E0F5F1F4F003DAA
:100CC00087E01807B1F7E5C02430310509F059C0B5
:100CD0008C010E5F1F4FAE01435F5F4F62E371E017
:100CE000C8010E947105AE014F5F5F4F66E271E07F
:100CF000C8010E947105AE014F5F5F4FBE01635F87
:100D00007F4FCE0149960E943D12882309F4C6C048
:100D1000898D882339F085E080934F0361E08BE172
:100D200091E0BAC00E94920E00915F03109160039F
:100D300020916103309162036B017C01C01AD10ADA
:100D4000E20AF30A60935F03709360038093610388
:100D50009093620389E8C81683E1D806E104F104A0
:100D600018F083E090E085C000E010E088EE93E0AA
:100D70000E94E80E0F5F1F4F003D87E01807B1F794
:100D800088C025303105F1F440E050E060E070E0CB
:100D9000CE0149960E943D12882309F47FC000E0ED
:100DA00010E088EE93E00E94E80E0F5F1F4F003DB9
:100DB00087E01807B1F786E080934F0361E081E197
:100DC00091E06AC02630310591F440E050E060E0E7
:100DD00070E0CE0149960E943D12882309F45EC05E
:100DE00087E080934F0361E087E091E055C02730B2
:100DF000310591F440E050E060E070E0CE014996AA
:100E00000E943D12882309F449C088E080934F0373
:100E100061E082E091E040C02830310589F440E093
:100E200050E060E070E0CE0149960E943D128823B8
:100E3000A9F189E080934F0361E088EF90E02CC036
:100E40002930310559F540E050E060E070E0CE0116
:100E500049960E943D12882309F1898D882309F45F
:100E600080CF83E090E0909356038093550381E018
:100E700090E00E94611212C084E080934F030E94B0
:100E8000920E60935F03709360038093610390936D
:100E9000620361E08EE391E00E947F1269960FB6D3
:100EA000F894DEBF0FBECDBFDF91CF911F910F91A0
:100EB000FF90EF90DF90CF900895CF92DF92FF9256
:100EC0000F931F93CF93DF931F92CDB7DEB76C01C3
:100ED0008B01F22E61E087E049830E94341449813E
:100EE00081E090E0909356038093550361E087E0A2
:100EF000442399F00E94041460EE7EE280E090E0CA
:100F00000E94701460E087E00E94041468EE73E0B1
:100F100080E090E00E9470140CC00E94041460ED08
:100F200077E080E090E00E94701460E087E00E942B
:100F300004141092740310927303109272031092AF
:100F400071031092700310926F0328E630E080E086
:100F500090E0F90145915591659174914038554261
:100F60006105710559F52CE0289FA001299F500DBE
:100F70001124FA01E459FF4F8591949190936E03E7
:100F800080936D03FA01E259FF4F859194919093FC
:100F9000700380936F03FA01E059FF4F859194919C
:100FA0009093720380937103FA01EE58FF4F85917D
:100FB000949190937403809373030BC00196245F04
:100FC0003F4F8C30910509F0C4CF10926E03109200
:100FD0006D038091710390917203892B81F0809150
:100FE000680084608093680080916D0084608093C5
:100FF0006D0080917303909174030E94E80E83E664
:1010000093E090939B0280939A0210934B0300937A
:101010004A03C601029690935E0380935D0310928B
:101020004E0381E080934F0382E090E09093510360
:1010300080935003109253031092540390935603DD
:1010400080935503C6010E94E305F1100DC0809105
:101050005503909156030F90DF91CF911F910F91FF
:10106000FF90DF90CF900895D601ED91FC91008420
:10107000F185E02DC6010995892B49F768EE73E0EB
:1010800080E090E00E947014EFCFCF9390EE980F25
:101090009F3510F4682F10C0C82F65E285EA92E0F2
:1010A0000E94D1124C2F50E060E070E02AE085EA07
:1010B00092E00E94881265E285EA92E0CF910C945A
:1010C000D112CF93DF931F92CDB7DEB780914F033C
:1010D000813019F0823081F023C082E080934F0389
:1010E0006AE184E493E00E94BC146FEE71E086E450
:1010F00093E00E94541314C040E050E060E070E0C0
:10110000CE0101960E943D12882351F089818823E7
:1011100019F081E090E002C083E090E00E9461124B
:101120000F90DF91CF910895CF93DF93EC0102965A
:1011300090935E0380935D0310924E0381E0809351
:101140004F0385E090E090935103809350031092F9
:10115000530310925403CE010E946108E881F98183
:101160000088F189E02DCE010995892B39F464E6D8
:1011700070E080E090E00E947014F0CF80914E0308
:1011800090E0DF91CF91089584E493E00C94BC1437
:101190008F929F92AF92BF92CF92DF92EF92FF9287
:1011A0000F931F93CF93DF9300D0CDB7DEB76C01C1
:1011B0004A015901FC0121814081CE0102967C0146
:1011C00000E010E0C6010E940A02811102C080E026
:1011D0002BC08A8141E0480F4A83F6012181E12C2E
:1011E000F12C8E010F5F1F4FB401C6010E940A024D
:1011F000882369F39A8149814F7750E0F501BF0157
:101200006A197B09292F30E02417350749F0D601E8
:10121000A20FB31F14962C9121939F5F9F77EFCF5E
:10122000F501E60FF71F10820F900F90DF91CF911D
:101230001F910F91FF90EF90DF90CF90BF90AF90F4
:101240009F908F9008950F931F939B018A0149EF00
:1012500051E063EF71E086E793E00E94C80881E007
:1012600090E01F910F910895AF92BF92CF92DF92BD
:10127000EF92FF920F931F93CF93DF9300D0CDB7E0
:10128000DEB76C01B42EA22EFC0121814081CE017B
:1012900001967C018E010E5F1F4FC6010E940A025B
:1012A0008823A9F0AA2051F0BB2021F099819F5FEB
:1012B0009F7701C09A81F601908309C0BB2021F07D
:1012C00099819F5F9F7701C09A81F60191830F906A
:1012D0000F90DF91CF911F910F91FF90EF90DF90D2
:1012E000CF90BF90AF900895FC012681211109C0D5
:1012F00021E0268341E06EE272E086E793E00E94FF
:1013000034099091770380917603891728F48091AE
:1013100077039091760305C08091770390917603CF
:101320008058891B39F0E0917603F0E0E85BFC4FD0
:1013300082A901C080E0082E000C990B08950F933C
:101340001F93CF93DF93CDB7DEB72D970FB6F894E9
:10135000DEBF0FBECDBF8C0190914F039230F1F0F4
:1013600018F4913041F0A9C0933009F45EC0943074
:1013700009F46CC0A2C060E084E791E00E947F1293
:10138000E0914A03F0914B03309709F48AC08081C1
:1013900080538A3008F485C061E384C040E050E0A7
:1013A00060E070E0CE010D960E943D12882309F4A2
:1013B00084C08D858823B1F160E089E691E00E94C8
:1013C0007F126BEF71E086E493E00E94541360910A
:1013D0004A0370914B036115710529F086E493E08F
:1013E0000E94541306C066E473E0C80107960E9489
:1013F0000E1362E286E493E00E94D1126CE286E46E
:1014000093E00E94D11260914C0370914D0386E4E9
:1014100093E00E94D8126DE086E493E00E94D1121E
:1014200083E011C083E090E039C040E050E060E02C
:1014300070E0CE010D960E943D128823F1F18D855A
:10144000882381F384E080934F0337C0AE014F5F60
:101450005F4F6FE571E0C80103960E94710540E09F
:1014600050E0BE016F5F7F4FCE010D960E943D128E
:10147000882319F18D858823A9F285E090E0909367
:1014800056038093550321E041E0BE016F5F7F4F1B
:1014900086E793E00E94340981E090E00E946112A7
:1014A0000CC060E386E493E00E94D1126DE086E414
:1014B00093E00E94D11282E0C6CF2D960FB6F89429
:1014C000DEBF0FBECDBFDF91CF911F910F91089569
:1014D00050934D0340934C03FC013687258770934E
:1014E0004B0360934A03AC014D5F5F4F50935E0323
:1014F00040935D0310924E0321E020934F032EE0B2
:1015000030E0309351032093500310925303109214
:1015100054032091570330915803232B79F02091E5
:10152000590330915A03232B61F020915B033091D2
:101530005C03232B79F422E030E005C020E030E0AA
:1015400002C021E030E0220F331FF901EC5BFC4FB9
:10155000548B438B0E949F0980914E0390E0089525
:10156000EF92FF920F931F93FC0121814081E12CA8
:10157000F12C00E010E00E940A021F910F91FF90F1
:10158000EF9008950F931F93CF93DF93EC018E811B
:1015900081110AC081E08E8321E041E06EE272E0B9
:1015A00086E793E00E943409909176038091770357
:1015B000981769F0E0917603F0E0E85BFC4F02A930
:1015C000809176038F5F8F778093760301C000E070
:1015D0008985882341F0198663E072E086E793E00D
:1015E0000E94B00A88878885811133C08F81882343
:1015F00099F180917603909177038150891B8F77C1
:10160000002E000C110B8F3709F055C08091770325
:10161000809376031F8281E089872296D0935E03B0
:10162000C0935D0310924E0380934F0310925103B9
:1016300010925003109253031092540383E693E0E8
:101640000E94FF0B6AE070E080E090E00E9470145E
:1016500032C063E072E002C069E072E086E793E0C6
:101660000E94B00A882321F0802F000F990B24C01C
:1016700080917703809376032296D0935E03C09384
:101680005D0310924E0381E080934F03109251034B
:1016900010925003109253031092540383E693E088
:1016A0000E94FF0B6AE070E080E090E00E947014FE
:1016B00080E090E001C0C801DF91CF911F910F91B0
:1016C00008951F93CF93DF93EC0180914F038130F6
:1016D00019F0823051F067C061E08CE991E00E941E
:1016E0007F1282E080934F035EC0909176038091D9
:1016F00077039150981B9F7781E0953008F080E048
:101700008F8321E041E060E172E086E793E00E9490
:101710003409182F909176039F5F60E040E020E04D
:1017200030E07AE080917703981711F1E92FF0E02B
:10173000E85BFC4F52A9503219F4411105C015C0A5
:101740005D3211F4442379F080ED850F8A3080F406
:10175000729FF001739FF00D11249F01250F311D21
:101760002053310901C061E041E09F5F9F77DACFEC
:10177000662319F03195219531093D832C8363E06F
:1017800072E086E793E00E94B00A888719861111FB
:1017900003C084E090E002C081E090E0DF91CF914F
:1017A0001F910C946112DF91CF911F910895CF93F7
:1017B000DF93FC011682C4E4D3E09C012E5F3F4F0F
:1017C0003A8F298F1A8621E02B8726E030E03D876B
:1017D0002C871F86188A0E94610B8A8590E0DF9112
:1017E000CF910895DC011696ED91FC9117979081A9
:1017F00015968C9180958923808308950895DC0146
:10180000ED91FC910280F381E02D61E10994CF9389
:10181000DF93FC0120893189232B51F1EC010190E8
:10182000F081E02D0280F381E02D613149F467E71A
:101830000995E881F9810280F381E02D6EEE14C0F4
:10184000633149F467E70995E881F9810280F38102
:10185000E02D6CEE09C0673741F40995E881F98104
:101860000280F381E02D68E8CE01DF91CF910994E9
:1018700080E090E0DF91CF9108952091570330915F
:101880005803232B79F02091590330915A03232BCD
:1018900061F020915B0330915C03232B81F422E003
:1018A00030E005C020E030E002C021E030E0220F4F
:1018B000331FF901EC5BFC4F0296948B838B0895E8
:1018C000FC01778366830895CF93DF93EC01E88171
:1018D000F9810684F785E02D09958E819F81DF913E
:1018E000CF910895089580E090E0089581E02091DF
:1018F0005503309156032530310509F080E00895F5
:1019000081E020915503309156032530310509F0CF
:1019100080E0089580E090E0089580E090E00895F0
:101920000F931F93CF93DF931F92CDB7DEB78C0138
:1019300080914F03813019F0823051F027C061E06F
:1019400088E092E00E947F1282E080934F031EC0E5
:1019500040E050E060E070E0CE0101960E943D1250
:101960008823A1F0D801ED91FC910484F585E02D48
:1019700060E070E0C80109958981882319F081E051
:1019800090E002C083E090E00E9461120F90DF912E
:10199000CF911F910F910895CF93DF93C4E4D3E0CB
:1019A0001A8621E02B879C012E5F3F4F3A8F298FAB
:1019B0002AE030E03D872C871F86188A0E94900C11
:1019C0008A8590E0DF91CF9108950F931F93CF9375
:1019D000DF931F92CDB7DEB78C0180914F0381302A
:1019E00019F0823051F027C061E084E092E00E945B
:1019F0007F1282E080934F031EC040E050E060E021
:101A000070E0CE0101960E943D128823A1F0D8011A
:101A1000ED91FC910484F585E02D63E070E0C80150
:101A200009958981882319F081E090E002C083E064
:101A300090E00E9461120F90DF91CF911F910F9162
:101A40000895CF93DF93C4E4D3E01A8621E02B8777
:101A50009C012E5F3F4F3A8F298F29E030E03D8770
:101A60002C871F86188A0E94E50C8A8590E0DF91FA
:101A7000CF9108950F931F93FC0190914F039130E4
:101A8000D1F0923001F50481158120914A03309103
:101A90004B0349EF51E067E172E086E793E00E9473
:101AA000C808809177038093760381E090E01F91CE
:101AB0000F910C94611261E08CEF91E00E947F1213
:101AC00082E080934F031F910F910895CF93DF938E
:101AD000C4E4D3E07F836E83FC01558344831A867C
:101AE00021E02B879C012E5F3F4F3A8F298F2BE0FF
:101AF00030E03D872C871F86188A0E943A0D8A8520
:101B000090E0DF91CF9108950F931F93CF93DF93D0
:101B1000EC018B0160E088EF91E00E947F12B80138
:101B200086E493E00E9454136AE272E086E493E054
:101B30000E945413E881F9810484F585E02D61E069
:101B400070E0CE01099581E090E0DF91CF911F9187
:101B50000F9108950E94561380914E0390E00895CE
:101B60000E94561380914E0390E008950F931F93A7
:101B7000CF93DF9300D000D0CDB7DEB78C0190912A
:101B80004F03923081F050F4913009F082C061E04F
:101B90008AED91E00E947F1282E02CC09330F1F137
:101BA000943059F176C08DE089838AE08A831B8264
:101BB00040E050E0BE016F5F7F4FCE0104960E946F
:101BC0003D12882309F465C08C81882321F160E0EF
:101BD00088EC91E00E947F1260914C0370914D035C
:101BE00086E493E00E94D8126DE086E493E00E94C0
:101BF000D11283E080934F034CC040E050E060E09E
:101C000070E0CE0104960E943D12882309F441C081
:101C10008C81811117C083E090E039C040E050E032
:101C200060E070E0CE0104960E943D12882389F1A5
:101C30008C81882381F361E08CEB91E00E947F121C
:101C400084E0D8CF8091570390915803892B79F085
:101C50008091590390915A03892B61F080915B0325
:101C600090915C03892B89F422E030E005C020E0EC
:101C700030E002C021E030E0220F331FF901EC5BBD
:101C8000FC4F0E5F1F4F148B038B81E090E00E948E
:101C900061120F900F900F900F90DF91CF911F91D5
:101CA0000F910895CF93DF93C4E4D3E079876887D9
:101CB0009C012E5F3F4F3A8F298F1A8621E02B8798
:101CC00024E130E03D872C871F86188A0E94B60DDC
:101CD0008A8590E0DF91CF9108953FB7F894809185
:101CE000A1029091A202A091A302B091A40226B5F4
:101CF000A89B05C02F3F19F00196A11DB11D3FBF44
:101D0000BA2FA92F982F8827820F911DA11DB11DD1
:101D1000BC01CD0142E0660F771F881F991F4A95CD
:101D2000D1F708952FB7F89460919D0270919E02AB
:101D300080919F029091A0022FBF08951F920F9251
:101D40000FB60F9211242F933F938F939F93AF93CE
:101D5000BF9380919D0290919E02A0919F02B091AD
:101D6000A00230919C0223E0230F2D3720F401962E
:101D7000A11DB11D05C026E8230F0296A11DB11DAE
:101D800020939C0280939D0290939E02A0939F02B9
:101D9000B093A0028091A1029091A202A091A3020F
:101DA000B091A4020196A11DB11D8093A102909350
:101DB000A202A093A302B093A402BF91AF919F91FE
:101DC0008F913F912F910F900FBE0F901F901895FC
:101DD00020E001972FEF8F3F9207D9F708958F9258
:101DE0009F92AF92BF92CF92DF92EF92FF920F93AA
:101DF0001F93CF93DF93C0919A02D0919B022097BB
:101E000009F4D1C02F933F934F935F936F937F93C8
:101E1000AF93BF93EB81FC8190818A81892309F084
:101E20007BC010E000E0EE24E394DD24D39422E0B4
:101E3000C22E8C898A859B850E94E80E8B899C899D
:101E40008150891B8F77BB24B394863010F0B12C5E
:101E500005C0011103C0CE010E94F20B98E0892E4B
:101E6000912CAA24A3948C859D850E94E80EEB8179
:101E7000FC8190818A81892311F01A2903C08A2D5F
:101E800080951823BB2079F001110DC08A2D837134
:101E900039F0EE81FF8190818D81892B808303C091
:101EA000CE010E94F20BAA0C81E0881A9108D9F6A3
:101EB000BB2009F44EC001110AC08C859D850E948B
:101EC000E80EEE81FF8190818D81892B80838A8944
:101ED00082608A8B01E08A891F3F39F581FF29C022
:101EE0008C258A8B82E3882E912C81E090E00E94E1
:101EF000E80EEB81FC8190818A81892309F499CFD6
:101F0000A1E08A1A910889F7B1103EC01A3009F48D
:101F10003BC0103209F438C0BF91AF917F916F91EF
:101F20005F914F913F912F913EC0173711F481601F
:101F3000D8CF80FF13C01E3E31F01C3E31F0183860
:101F400029F417E703C011E101C013E18D258A8B45
:101F500005C08E859F850E94E80EBDCF8C898F5F5E
:101F60008F779B89891751F09C89FE01E90FF11D3C
:101F7000178BFE01E80FF11D178A8C8BEE2009F4F8
:101F8000B1CFFC88E12CAECF88859985009709F404
:101F9000C3CF4C89DC01ED91FC910190F081E02DE3
:101FA0006F2D0995B9CFDF91CF911F910F91FF90C0
:101FB000EF90DF90CF90BF90AF909F908F9008955B
:101FC0001F920F920FB60F9211242F933F934F93AE
:101FD0005F936F937F938F939F93AF93BF93EF9391
:101FE000FF930E94EF0EFF91EF91BF91AF919F91F0
:101FF0008F917F916F915F914F913F912F910F90B2
:102000000FBE0F901F9018951F920F920FB60F9250
:1020100011242F933F934F935F936F937F938F93ED
:102020009F93AF93BF93EF93FF930E94EF0EFF91A7
:10203000EF91BF91AF919F918F917F916F915F9140
:102040004F913F912F910F900FBE0F901F901895B9
:102050001F920F920FB60F9211242F933F934F931D
:102060005F936F937F938F939F93AF93BF93EF9300
:10207000FF930E94EF0EFF91EF91BF91AF919F915F
:102080008F917F916F915F914F913F912F910F9021
:102090000FBE0F901F901895DF92EF92FF920F9353
:1020A0001F93CF93DF93EC01D62EEFB6F8940E94E6
:1020B000F20B8889998905960E94E80E08E010E0E5
:1020C000FF24F3948F2D8D2139F0EE81FF819081D3
:1020D0008D81892B808303C0CE010E94F20B8889F9
:1020E00099890E94E80EFF0C0150110959F7EE8101
:1020F000FF8190818D81892B8083EFBE88899989AA
:102100000E94E80E81E090E0DF91CF911F910F9146
:10211000FF90EF90DF9008950F931F93CF93DF937D
:102120001F92CDB7DEB78C0190914F03913019F01B
:102130009230B9F02AC082E080934F0360E083EBD5
:1021400091E00E947F12F8016481758186E493E03A
:102150000E94D8126FEE71E086E493E00E9454135F
:1021600014C040E050E060E070E0CE0101960E94B3
:102170003D12882351F08981882319F081E090E095
:1021800002C083E090E00E9461120F90DF91CF9136
:102190001F910F910895E5EAF2E0A089B18982E0EC
:1021A0008C93A485B5851C92A685B7858FEC8C93FE
:1021B000108EA489B58986E08C93A289B3898C910D
:1021C00080618C93A289B3898C9188608C93A28959
:1021D000B3898C9180688C930288F389E02D80818B
:1021E0008F7D80830895CF92DF92EF92FF920F93BD
:1021F0001F93CF93DF936C017A018B01C0E0D0E095
:10220000CE15DF0589F0D8016D918D01D601ED91D4
:10221000FC910190F081E02DC6010995892B11F404
:102220007E0102C02196ECCFC701DF91CF911F91B3
:102230000F91FF90EF90DF90CF900895FC01918D6A
:10224000828D981761F0828DDF01A80FB11D5D9618
:102250008C91928D9F5F9F73928F90E008958FEF86
:102260009FEF0895FC01918D828D981731F0828D3A
:10227000E80FF11D858D90E008958FEF9FEF089591
:10228000FC01918D228D892F90E0805C9F4F821BF5
:1022900091098F739927089585EA92E00E94401171
:1022A00021E0892B09F420E0822F0895FC01848D20
:1022B000DF01A80FB11DA35ABF4F2C91848D90E070
:1022C00001968F739927848FA689B7892C93A0894B
:1022D000B1898C9180648C93938D848D981306C002
:1022E0000288F389E02D80818F7D80830895EF92AD
:1022F000FF920F931F93CF93DF93EC0181E0888FC0
:102300009B8D8C8D981305C0E889F989808185FDA6
:1023100024C0F62E0B8D10E00F5F1F4F0F73112797
:10232000E02E8C8DE8120CC00FB607FCFACFE889BE
:10233000F989808185FFF5CFCE010E945611F1CF3A
:102340008B8DFE01E80FF11DE35AFF4FF0820B8FDA
:10235000EA89FB898081806207C0EE89FF896083FA
:10236000E889F98980818064808381E090E0DF9151
:10237000CF911F910F91FF90EF900895CF93DF932E
:10238000EC01888D8823C9F0EA89FB89808185FD6D
:1023900005C0A889B9898C9186FD0FC00FB607FCCE
:1023A000F5CF808185FFF2CFA889B9898C9185FF0F
:1023B000EDCFCE010E945611E7CFDF91CF91089566
:1023C00080E090E0892B29F00E944C1181110C943F
:1023D00000000895833081F028F4813099F0823034
:1023E000A1F008958730A9F08830B9F08430D1F495
:1023F000809180008F7D03C0809180008F778093D3
:102400008000089584B58F7702C084B58F7D84BD28
:1024100008958091B0008F7703C08091B0008F7DC8
:102420008093B00008950E9426196115710579F016
:10243000FB0101900020E9F73197AF01461B570BD4
:10244000DC01ED91FC910280F381E02D099480E0A4
:1024500090E00895CF93DF93BC0185EA92E00E945B
:102460001512EC016DE272E085EA92E00E9415120D
:102470008C0F9D1FDF91CF9108950F931F93CF93E2
:10248000DF938C01EA016115710521F4209711F4A5
:102490006DE072E086E793E00E94B00AF801808365
:1024A000811109C0209739F0BE0186E793E00E94B0
:1024B000B00AF801808381E0DF91CF911F910F91E5
:1024C00008958130910539F02091500330915103E6
:1024D0002230310579F080934E0381E090E09093B3
:1024E00051038093500310925E0310925D0380931A
:1024F0004F0308951092560310925503ECCF462FC8
:10250000E4E4F3E023A922ABBC01CF010C94510316
:102510004F925F926F927F92EF92FF920F931F9371
:10252000CF93DF93CDB7DEB7A1970FB6F894DEBF98
:102530000FBECDBF7C01FA01CB0119A2223008F4F5
:102540002AE08E010F5D1F4F422E512C612C712C01
:10255000BF01A30192010E94FE18F901CA010150B6
:1025600011096A3014F4605D01C0695CD8016C9394
:10257000232B242B252B61F7B801C7010E941512CC
:10258000A1960FB6F894DEBF0FBECDBFDF91CF91FD
:102590001F910F91FF90EF907F906F905F904F9001
:1025A0000895DC01ED91FC910190F081E02D0994FA
:1025B000CF92DF92EF92FF920F931F93CF93DF930F
:1025C0006B01770FEE08FF08F7FE1BC0EC016DE210
:1025D0000E94D1128C0144275527BA014C195D097C
:1025E0006E097F092AE0CE010E948812800F911F98
:1025F000DF91CF911F910F91FF90EF90DF90CF90DF
:1026000008952AE0B701A601DF91CF911F910F91A4
:10261000FF90EF90DF90CF900C9488128F929F9252
:10262000AF92BF92CF92DF92EF92FF920F931F93E0
:10263000CF93DF937C018B016C0182E0C80ED11C2B
:102640004701E5E08E0E911CC0E0D0E0F60141911B
:102650006F0150E060E070E02AE0C8010E9488123B
:102660005C016EE2C8010E94D1128A0D9B1DC80F49
:10267000D91FC814D90451F7F701458150E060E033
:1026800070E02AE0C8010E9488128C0F9D1FDF9124
:10269000CF911F910F91FF90EF90DF90CF90BF905F
:1026A000AF909F908F9008950C941512CF93DF9365
:1026B00080915203882309F44CC090915303809178
:1026C0005403981709F445C0C0917603D09177035D
:1026D0006DE272E085EA92E00E9415124C2F50E004
:1026E00060E070E02AE085EA92E00E94881266E7E6
:1026F00072E085EA92E00E9454134D2F50E060E0B2
:1027000070E02AE085EA92E00E9488126EE385EA92
:1027100092E00E94D112CD1751F0EC2FF0E0E85B6F
:10272000FC4F82A90E944508CF5FCF77F4CF6DE2BE
:1027300072E085EA92E00E94151240915403609184
:10274000530384E493E00E94140510925303109203
:102750005403DF91CF9108951F920F920FB60F92FD
:1027600011242F933F934F935F936F937F938F9396
:102770009F93AF93BF93EF93FF9385EA92E00E94FC
:102780005611FF91EF91BF91AF919F918F917F91E2
:102790006F915F914F913F912F910F900FBE0F90CE
:1027A0001F9018951F920F920FB60F9211242F931E
:1027B0008F939F93EF93FF93E091B502F091B60250
:1027C0008081E091BB02F091BC0282FD12C0908139
:1027D0008091BE028F5F8F732091BF02821751F0EC
:1027E000E091BE02F0E0EB55FD4F958F8093BE0265
:1027F00001C08081FF91EF919F918F912F910F9058
:102800000FBE0F901F9018951F93CF93DF93282F23
:1028100030E0F901E75CFD4F8491F901EB58FD4F81
:10282000D491F901EF59FD4FC491CC23C9F0162F73
:1028300081110E94EA11EC2FF0E0EE0FFF1FE35B25
:10284000FD4FA591B4918FB7F894111105C09C91DB
:10285000ED2FE095E92302C0EC91ED2BEC938FBFB7
:10286000DF91CF911F910895CF93DF9390E0FC010A
:10287000EB58FD4F2491FC01EF59FD4F84918823C3
:1028800061F190E0880F991FFC01E15DFD4FC5915A
:10289000D491FC01E35BFD4FA591B491611109C096
:1028A0009FB7F8948881209582238883EC912E230A
:1028B0000BC0623061F49FB7F8943881822F809505
:1028C00083238883EC912E2B2C939FBF06C08FB758
:1028D000F894E8812E2B28838FBFDF91CF91089544
:1028E0008F929F92AF92BF92CF92DF92EF92FF9220
:1028F0006B017C010E946D0E4B015C01C114D1047F
:10290000E104F104F1F00E946D0EDC01CB018819A5
:102910009909AA09BB09883E9340A105B10570F346
:1029200021E0C21AD108E108F10888EE880E83E0A0
:10293000981EA11CB11CC114D104E104F10419F7C3
:10294000DDCFFF90EF90DF90CF90BF90AF909F9042
:102950008F9008952091500330915103223031051A
:1029600021F02330310519F008950C94E3050C94FF
:102970000B0302970C94AA140F931F93CF93DF932A
:102980001F92CDB7DEB78C01FC018685882329F024
:10299000862F69830E9445086981C8014F960F9070
:1029A000DF91CF911F910F910C94070C02970C941B
:1029B000BC14EF92FF921F93CF93DF93CDB7DEB796
:1029C0002C970FB6F894DEBF0FBECDBF03967C01E7
:1029D000AE014F5F5F4F6BE871E00E94710511E03F
:1029E0008091550390915603059709F010E020E07F
:1029F00040E0BE016F5F7F4F86E793E00E9434099D
:102A0000812351F124E030E03093560320935503A5
:102A100020915703309158032E153F0589F02091DE
:102A2000590330915A032E153F0569F020915B033D
:102A300030915C032E153F0579F422E030E005C0AB
:102A400020E030E002C021E030E0220F331FF90126
:102A5000EC5BFC4F148A138A2C960FB6F894DEBFF9
:102A60000FBECDBFDF91CF911F91FF90EF900895E2
:102A700003970C94D91420915003309151032E30B8
:102A8000310549F02331310541F02130310539F468
:102A90006093770308950C949F090C94CA020895DB
:102AA00003970C943B15CF92DF92FF920F931F93E5
:102AB000CF93DF93CDB7DEB72F970FB6F894DEBF75
:102AC0000FBECDBF8C016C0182E0C80ED11CAE01DF
:102AD0004F5F5F4F6AE272E0C6010E947105BE015E
:102AE0006F5F7F4F86E793E00E94B00AF82E88233D
:102AF00049F0D801ED91FC910484F585E02D62E068
:102B000070E01AC0AE014F5F5F4F63E272E0C60132
:102B10000E947105BE016F5F7F4F86E793E00E94C0
:102B2000B00AF82E882379F0D801ED91FC91048445
:102B3000F585E02D63E070E0C80109958091770389
:102B4000809376034DC0AE014F5F5F4F68E172E046
:102B5000C6010E947105BE016F5F7F4F86E793E05B
:102B60000E94B00AF82E811112C0AE014F5F5F4F74
:102B700063E172E0C6010E947105BE016F5F7F4F85
:102B800086E793E00E94B00AF82E882349F0D80126
:102B9000ED91FC910484F585E02D60E070E0CCCFF0
:102BA000AE014F5F5F4F6CE072E0C6010E9471059D
:102BB000BE016F5F7F4F86E793E00E94B00AF82E58
:102BC000882371F08091770380937603D801ED918B
:102BD000FC910484F585E02D62E070E0C801099560
:102BE0008F2D2F960FB6F894DEBF0FBECDBFDF91AD
:102BF000CF911F910F91FF90DF90CF900895029792
:102C00000C94531520915003309151032A30310513
:102C100041F02B30310539F02930310531F40C9475
:102C2000E50C0C94900C0C943A0D089502970C94BA
:102C300002160F931F93CF93DF93CDB7DEB72F9775
:102C40000FB6F894DEBF0FBECDBF8C010E5F1F4FD5
:102C5000AE014F5F5F4F6FEE71E0C8010E947105DA
:102C6000BE016F5F7F4F86E793E00E94B00A882322
:102C700031F084E090E09093560380935503AE01C9
:102C80004F5F5F4F65EE71E0C8010E947105BE01A4
:102C90006F5F7F4F86E793E00E94B00A182F88236A
:102CA00099F021E041E0BE016F5F7F4F86E793E03E
:102CB0000E94340983E693E00E94FF0B85E090E0D8
:102CC0009093560380935503812F2F960FB6F89457
:102CD000DEBF0FBECDBFDF91CF911F910F91089541
:102CE00002970C9419162091500330915103213012
:102CF000310521F02431310521F0089560937703E7
:102D000008950C94B60D02970C94731620915003FD
:102D10003091510325303105A1F03CF421303105CB
:102D200059F02430310559F008952630310559F015
:102D30002730310551F008956093770308950C947E
:102D4000AD040C9461080C94610B0C948C100297E8
:102D50000C948616789484B5826084BD84B58160B5
:102D600084BD85B5826085BD85B5816085BD809156
:102D70006E00816080936E001092810080918100CE
:102D800082608093810080918100816080938100C6
:102D9000809180008160809380008091B100846088
:102DA0008093B1008091B00081608093B0008091E9
:102DB0007A00846080937A0080917A0082608093A8
:102DC0007A0080917A00816080937A0080917A0005
:102DD000806880937A001092C1000E94CB1060E05E
:102DE00089E00E94341461E08DE00E9434140E9456
:102DF000CB1080E392E00E942A1284E492E00E94C9
:102E00002A12C2E4D2E00EE712E03AE6E32E32E004
:102E1000F32EFE018491F801C490F701D490DD20D7
:102E200009F44BC081110E94EA118D2D90E0880FAA
:102E3000991F895A9D4FFC01A591B4918C91C8228C
:102E4000E1F161E08DE00E94041484E592E00E94CB
:102E50002A1268EE73E080E090E00E9470146EE544
:102E600072E085EA92E00E94541368EE73E080E01D
:102E700090E00E94701488E792E00E942A1281E993
:102E800092E00E942A126AE185EA92E00E94D11241
:102E90006DE272E085EA92E00E94151268EE73E03E
:102EA00080E090E00E94701468EE73E080E090E0B3
:102EB0000E9470140E94E011ACCF60E08DE00E948F
:102EC0000414F8CFCF92DF92EF92FF920F931F93EB
:102ED000CF93DF93EAEFF3E008EE11E01183008374
:102EE0001282138214821582E5EAF2E013821282C2
:102EF00088EEC82E83E0D82EE12CF12CC482D58236
:102F0000E682F78284E091E09183808385EC90E013
:102F10009587848784EC90E09787868780EC90E0A3
:102F2000918B808B81EC90E0938B828B82EC90E094
:102F3000958B848B86EC90E0978B868B118E128E0E
:102F4000138E148EEAE0F4E0118300831282138260
:102F500014821582E2E0F4E084E191E091838083C1
:102F60008CE291E09383828315821482F0930104B2
:102F7000E0930004E0E1F4E0118300831282138205
:102F800014821582E6E1F4E0118300831282138239
:102F900014821582ECE1F4E0118300831282138223
:102FA00014821582E2E2F4E011830083128213821C
:102FB00014821582C4E4D3E01D821C828EE391E06A
:102FC0009983888388E491E09B838A8384E391E0FA
:102FD00098A38F8F1AA619A61CA61BA61EA61DA60F
:102FE00018AA1FA61AAA1BAA83E693E09DAB8CAB76
:102FF00061E083E00E94341461E083E00E940414E5
:10300000E8E7F2E0E491ECA3E4E6F2E0E491F0E03A
:10301000EE0FFF1FE35BFD4F859194919EA38DA35F
:1030200060E082E00E94341461E082E00E940414B7
:10303000E7E7F2E0E491E9A3E3E6F2E0E491F0E00F
:10304000EE0FFF1FE95AFD4F859194919BA38AA330
:10305000D8A7CFA31F86188A81E08A871B8681E0C4
:1030600090E09D878C870E94920E6B8F7C8F8D8F56
:103070009E8F1C8A1B8A1E8A1D8A188E1F8AE8E270
:10308000F4E0118300831282138214821582EEE22F
:10309000F4E0118300831282138214821582E4E328
:1030A000F4E0118300831282138214821582EAE312
:1030B000F4E0118300831282138214821582E0E40B
:1030C000F4E0118300831282138214821582E0E5FA
:1030D000F4E0118300831282138214821582E6E4E5
:1030E000F4E080E591E09183808388E691E093832A
:1030F0008283F0934303E0934203ECE5F4E0118311
:1031000000831282138214821582E8E5F4E080E7DE
:1031100091E09183808386E891E093838283F093AA
:103120005704E0935604E4E6F4E01183008312822E
:103130001382148215821092630410926204EAE6EC
:10314000F4E0118300831282138214821582E0E777
:10315000F4E0118300831282138214821582E7E85F
:10316000F4E0118300831282138214821582E8E74F
:10317000F4E08EE891E09183808388EB91E0948382
:103180008383108707831186128613861486F09333
:103190007704E0937604EDE8F4E011830083128273
:1031A000138214821582E4EAF4E011830083128210
:1031B000138214821582E0EAF4E080ED91E09183BD
:1031C000808380EE91E0938382831E86E3E9F4E0BE
:1031D00013821282C482D582E682F78280EC91E06B
:1031E00091838083848581608487DF91CF911F9153
:1031F0000F91FF90EF90DF90CF900895A1E21A2EEB
:10320000AA1BBB1BFD010DC0AA1FBB1FEE1FFF1F8A
:10321000A217B307E407F50720F0A21BB30BE40BDA
:10322000F50B661F771F881F991F1A9469F7609521
:103230007095809590959B01AC01BD01CF010895DB
:10324000EE0FFF1F0590F491E02D099481E090E0CE
:0A325000F8940C942B19F894FFCFAA
:10325A00000000007711F31040111E113211BE1147
:10326A00000000003D0C840D210DCC0C660D640C91
:10327A00600CAA0D02165315FEFF00001616FF1564
:10328A0000000000FF0B4C10070C0000000068054E
:10329A00BC145103FEFF0000D614F3100000000016
:1032AA00E804C4089408D70B740964022309C20A03
:1032BA000C048616FEFF0000A716C50100000000D8
:1032CA00800C8D0C8A0CB00D520E730C760C731692
:1032DA001916FEFF00008316701600000000C201D6
:1032EA00BF01060470017B017A01680A9E019D01F3
:1032FA00180484039C01EF029702DD027E018F030A
:10330A00D9143B15FDFF00005015381500000000C8
:10331A00DD01F3109204D201C70177040000000016
:10332A005D073803790523041204AA14FEFF00007E
:10333A00B914C501000000000E132B2B2B00220D1F
:10334A00003E0052454144222C220022544350227E
:10335A002C22000D0A0D0A2B000D0A0D0A4F4B00F4
:10336A002B434D474C3A002B434C43433A20312CD4
:10337A00312C342C302C302C22003B0D000D0A004D
:10338A00534D53204D657373616765732053656EA2
:10339A006465720047534D20696E697469616C698E
:1033AA007A65640041542B434D47463D31004154F0
:1033BA002B434D47533D222B323136787878787833
:1033CA0078787878220D200053544F50204C65208D
:1033DA00706F6964206573742064657061737365C6
:0A33EA000053454E44494E470000D1
:00000001FF
